{
  "contractName": "GetFile",
  "abi": [
    {
      "anonymous": false,
      "inputs": [
        {
          "indexed": true,
          "internalType": "address",
          "name": "previousOwner",
          "type": "address"
        },
        {
          "indexed": true,
          "internalType": "address",
          "name": "newOwner",
          "type": "address"
        }
      ],
      "name": "OwnershipTransferred",
      "type": "event"
    },
    {
      "anonymous": false,
      "inputs": [
        {
          "indexed": false,
          "internalType": "string",
          "name": "name",
          "type": "string"
        },
        {
          "indexed": false,
          "internalType": "string",
          "name": "fileHash",
          "type": "string"
        },
        {
          "indexed": true,
          "internalType": "address",
          "name": "owner",
          "type": "address"
        },
        {
          "indexed": false,
          "internalType": "uint256",
          "name": "storeDate",
          "type": "uint256"
        }
      ],
      "name": "StoreFileEvent",
      "type": "event"
    },
    {
      "inputs": [
        {
          "internalType": "string",
          "name": "_name",
          "type": "string"
        },
        {
          "internalType": "string",
          "name": "_fileHash",
          "type": "string"
        },
        {
          "internalType": "address",
          "name": "_owner",
          "type": "address"
        }
      ],
      "name": "Store",
      "outputs": [],
      "stateMutability": "nonpayable",
      "type": "function"
    },
    {
      "inputs": [
        {
          "internalType": "uint256",
          "name": "",
          "type": "uint256"
        }
      ],
      "name": "files",
      "outputs": [
        {
          "internalType": "string",
          "name": "name",
          "type": "string"
        },
        {
          "internalType": "string",
          "name": "fileHash",
          "type": "string"
        },
        {
          "internalType": "address",
          "name": "owner",
          "type": "address"
        },
        {
          "internalType": "uint256",
          "name": "storeDate",
          "type": "uint256"
        }
      ],
      "stateMutability": "view",
      "type": "function"
    },
    {
      "inputs": [],
      "name": "isOwner",
      "outputs": [
        {
          "internalType": "bool",
          "name": "",
          "type": "bool"
        }
      ],
      "stateMutability": "view",
      "type": "function"
    },
    {
      "inputs": [],
      "name": "owner",
      "outputs": [
        {
          "internalType": "address",
          "name": "",
          "type": "address"
        }
      ],
      "stateMutability": "view",
      "type": "function"
    },
    {
      "inputs": [],
      "name": "renounceOwnership",
      "outputs": [],
      "stateMutability": "nonpayable",
      "type": "function"
    },
    {
      "inputs": [
        {
          "internalType": "address",
          "name": "newOwner",
          "type": "address"
        }
      ],
      "name": "transferOwnership",
      "outputs": [],
      "stateMutability": "nonpayable",
      "type": "function"
    },
    {
      "inputs": [
        {
          "internalType": "address",
          "name": "_owner",
          "type": "address"
        }
      ],
      "name": "getFilesByOwner",
      "outputs": [
        {
          "internalType": "uint256[]",
          "name": "",
          "type": "uint256[]"
        }
      ],
      "stateMutability": "view",
      "type": "function"
    },
    {
      "inputs": [
        {
          "internalType": "address",
          "name": "_owner",
          "type": "address"
        },
        {
          "internalType": "uint256[]",
          "name": "fileIds",
          "type": "uint256[]"
        }
      ],
      "name": "getOwnerFileDetails",
      "outputs": [
        {
          "internalType": "string[]",
          "name": "",
          "type": "string[]"
        },
        {
          "internalType": "string[]",
          "name": "",
          "type": "string[]"
        }
      ],
      "stateMutability": "view",
      "type": "function"
    },
    {
      "inputs": [
        {
          "internalType": "string",
          "name": "_fileHash",
          "type": "string"
        }
      ],
      "name": "checkFileExistByHash",
      "outputs": [
        {
          "internalType": "bool",
          "name": "",
          "type": "bool"
        },
        {
          "internalType": "address",
          "name": "",
          "type": "address"
        }
      ],
      "stateMutability": "view",
      "type": "function"
    },
    {
      "inputs": [
        {
          "internalType": "string",
          "name": "_fileHash",
          "type": "string"
        }
      ],
      "name": "getFileIdByHash",
      "outputs": [
        {
          "internalType": "uint256",
          "name": "",
          "type": "uint256"
        },
        {
          "internalType": "bool",
          "name": "",
          "type": "bool"
        }
      ],
      "stateMutability": "view",
      "type": "function"
    }
  ],
  "bytecode": "0x608060405234801561001057600080fd5b50336000806101000a81548173ffffffffffffffffffffffffffffffffffffffff021916908373ffffffffffffffffffffffffffffffffffffffff16021790555060008054906101000a900473ffffffffffffffffffffffffffffffffffffffff1673ffffffffffffffffffffffffffffffffffffffff16600073ffffffffffffffffffffffffffffffffffffffff167f8be0079c531659141344cd1fd0a4f28419497f9722a3daafe3b4186f6b6457e060405160405180910390a3611dd1806100db6000396000f3fe608060405234801561001057600080fd5b506004361061009e5760003560e01c8063c26001c611610066578063c26001c614610136578063f2fde38b14610167578063f4c714b414610183578063f8258bf0146101b6578063fc08a7d7146101e75761009e565b80630fe9a1d6146100a357806357613b8e146100bf578063715018a6146100f05780638da5cb5b146100fa5780638f32d59b14610118575b600080fd5b6100bd60048036038101906100b891906111a4565b610217565b005b6100d960048036038101906100d4919061132d565b610616565b6040516100e79291906114ca565b60405180910390f35b6100f86108fe565b005b6101026109cd565b60405161010f9190611510565b60405180910390f35b6101206109f6565b60405161012d9190611546565b60405180910390f35b610150600480360381019061014b9190611561565b610a4d565b60405161015e9291906115aa565b60405180910390f35b610181600480360381019061017c91906115d3565b610b35565b005b61019d60048036038101906101989190611600565b610b52565b6040516101ad9493929190611686565b60405180910390f35b6101d060048036038101906101cb9190611561565b610cc2565b6040516101de9291906116d9565b60405180910390f35b61020160048036038101906101fc91906115d3565b610d78565b60405161020e91906117c0565b60405180910390f35b60008080600090505b6001805490508110156102e0578460405160200161023e919061181e565b6040516020818303038152906040528051906020012060036000838152602001908152602001600020604051602001610277919061192d565b60405160208183030381529060405280519060200120036102cd57600192506002600082815260200190815260200160002060009054906101000a900473ffffffffffffffffffffffffffffffffffffffff1691505b80806102d890611973565b915050610220565b506001151582151503610328576040517f08c379a000000000000000000000000000000000000000000000000000000000815260040161031f90611a07565b60405180910390fd5b8273ffffffffffffffffffffffffffffffffffffffff168173ffffffffffffffffffffffffffffffffffffffff1603610396576040517f08c379a000000000000000000000000000000000000000000000000000000000815260040161038d90611a07565b60405180910390fd5b6000429050600160405180608001604052808881526020018781526020018673ffffffffffffffffffffffffffffffffffffffff16815260200183815250908060018154018082558091505060019003906000526020600020906004020160009091909190915060008201518160000190816104129190611bbe565b5060208201518160010190816104289190611bbe565b5060408201518160020160006101000a81548173ffffffffffffffffffffffffffffffffffffffff021916908373ffffffffffffffffffffffffffffffffffffffff16021790555060608201518160030155505060006001808054905061048f9190611c90565b9050336002600083815260200190815260200160002060006101000a81548173ffffffffffffffffffffffffffffffffffffffff021916908373ffffffffffffffffffffffffffffffffffffffff160217905550856003600083815260200190815260200160002090816105039190611bbe565b50866004600083815260200190815260200160002090816105249190611bbe565b506105786001600560003373ffffffffffffffffffffffffffffffffffffffff1673ffffffffffffffffffffffffffffffffffffffff16815260200190815260200160002054610eca90919063ffffffff16565b600560003373ffffffffffffffffffffffffffffffffffffffff1673ffffffffffffffffffffffffffffffffffffffff168152602001908152602001600020819055508473ffffffffffffffffffffffffffffffffffffffff167f15fcfac5eaf6fc2bd63c0f413b1c9885f063e4e81c98237dc2b55b2067bfddc688888560405161060593929190611cc4565b60405180910390a250505050505050565b6060806000600560008673ffffffffffffffffffffffffffffffffffffffff1673ffffffffffffffffffffffffffffffffffffffff1681526020019081526020016000205467ffffffffffffffff8111156106745761067361101b565b5b6040519080825280602002602001820160405280156106a757816020015b60608152602001906001900390816106925790505b5090506000600560008773ffffffffffffffffffffffffffffffffffffffff1673ffffffffffffffffffffffffffffffffffffffff1681526020019081526020016000205467ffffffffffffffff8111156107055761070461101b565b5b60405190808252806020026020018201604052801561073857816020015b60608152602001906001900390816107235790505b50905060005b85518110156108ee57600086828151811061075c5761075b611d09565b5b6020026020010151905060046000828152602001908152602001600020805461078490611864565b80601f01602080910402602001604051908101604052809291908181526020018280546107b090611864565b80156107fd5780601f106107d2576101008083540402835291602001916107fd565b820191906000526020600020905b8154815290600101906020018083116107e057829003601f168201915b505050505084838151811061081557610814611d09565b5b602002602001018190525060036000828152602001908152602001600020805461083e90611864565b80601f016020809104026020016040519081016040528092919081815260200182805461086a90611864565b80156108b75780601f1061088c576101008083540402835291602001916108b7565b820191906000526020600020905b81548152906001019060200180831161089a57829003601f168201915b50505050508383815181106108cf576108ce611d09565b5b60200260200101819052505080806108e690611973565b91505061073e565b5081819350935050509250929050565b6109066109f6565b61090f57600080fd5b600073ffffffffffffffffffffffffffffffffffffffff1660008054906101000a900473ffffffffffffffffffffffffffffffffffffffff1673ffffffffffffffffffffffffffffffffffffffff167f8be0079c531659141344cd1fd0a4f28419497f9722a3daafe3b4186f6b6457e060405160405180910390a360008060006101000a81548173ffffffffffffffffffffffffffffffffffffffff021916908373ffffffffffffffffffffffffffffffffffffffff160217905550565b60008060009054906101000a900473ffffffffffffffffffffffffffffffffffffffff16905090565b60008060009054906101000a900473ffffffffffffffffffffffffffffffffffffffff1673ffffffffffffffffffffffffffffffffffffffff163373ffffffffffffffffffffffffffffffffffffffff1614905090565b60008060008080600090505b600180549050811015610b265785604051602001610a77919061181e565b6040516020818303038152906040528051906020012060036000838152602001908152602001600020604051602001610ab0919061192d565b6040516020818303038152906040528051906020012003610b1357600192506002600082815260200190815260200160002060009054906101000a900473ffffffffffffffffffffffffffffffffffffffff169150828294509450505050610b30565b8080610b1e90611973565b915050610a59565b5081819350935050505b915091565b610b3d6109f6565b610b4657600080fd5b610b4f81610ef6565b50565b60018181548110610b6257600080fd5b9060005260206000209060040201600091509050806000018054610b8590611864565b80601f0160208091040260200160405190810160405280929190818152602001828054610bb190611864565b8015610bfe5780601f10610bd357610100808354040283529160200191610bfe565b820191906000526020600020905b815481529060010190602001808311610be157829003601f168201915b505050505090806001018054610c1390611864565b80601f0160208091040260200160405190810160405280929190818152602001828054610c3f90611864565b8015610c8c5780601f10610c6157610100808354040283529160200191610c8c565b820191906000526020600020905b815481529060010190602001808311610c6f57829003601f168201915b5050505050908060020160009054906101000a900473ffffffffffffffffffffffffffffffffffffffff16908060030154905084565b6000806000805b600180549050811015610d5f5784604051602001610ce7919061181e565b6040516020818303038152906040528051906020012060036000838152602001908152602001600020604051602001610d20919061192d565b6040516020818303038152906040528051906020012003610d4c57600191508082935093505050610d73565b8080610d5790611973565b915050610cc9565b506000600180549050905080829350935050505b915091565b60606000600560008473ffffffffffffffffffffffffffffffffffffffff1673ffffffffffffffffffffffffffffffffffffffff1681526020019081526020016000205467ffffffffffffffff811115610dd557610dd461101b565b5b604051908082528060200260200182016040528015610e035781602001602082028036833780820191505090505b5090506000805b600180549050811015610ebf578473ffffffffffffffffffffffffffffffffffffffff166002600083815260200190815260200160002060009054906101000a900473ffffffffffffffffffffffffffffffffffffffff1673ffffffffffffffffffffffffffffffffffffffff1603610eac5780838381518110610e9157610e90611d09565b5b6020026020010181815250508180610ea890611973565b9250505b8080610eb790611973565b915050610e0a565b508192505050919050565b6000808284610ed99190611d38565b905083811015610eec57610eeb611d6c565b5b8091505092915050565b600073ffffffffffffffffffffffffffffffffffffffff168173ffffffffffffffffffffffffffffffffffffffff1603610f2f57600080fd5b8073ffffffffffffffffffffffffffffffffffffffff1660008054906101000a900473ffffffffffffffffffffffffffffffffffffffff1673ffffffffffffffffffffffffffffffffffffffff167f8be0079c531659141344cd1fd0a4f28419497f9722a3daafe3b4186f6b6457e060405160405180910390a3806000806101000a81548173ffffffffffffffffffffffffffffffffffffffff021916908373ffffffffffffffffffffffffffffffffffffffff16021790555050565b6000604051905090565b600080fd5b600080fd5b600080fd5b600080fd5b6000601f19601f8301169050919050565b7f4e487b7100000000000000000000000000000000000000000000000000000000600052604160045260246000fd5b6110538261100a565b810181811067ffffffffffffffff821117156110725761107161101b565b5b80604052505050565b6000611085610fec565b9050611091828261104a565b919050565b600067ffffffffffffffff8211156110b1576110b061101b565b5b6110ba8261100a565b9050602081019050919050565b82818337600083830152505050565b60006110e96110e484611096565b61107b565b90508281526020810184848401111561110557611104611005565b5b6111108482856110c7565b509392505050565b600082601f83011261112d5761112c611000565b5b813561113d8482602086016110d6565b91505092915050565b600073ffffffffffffffffffffffffffffffffffffffff82169050919050565b600061117182611146565b9050919050565b61118181611166565b811461118c57600080fd5b50565b60008135905061119e81611178565b92915050565b6000806000606084860312156111bd576111bc610ff6565b5b600084013567ffffffffffffffff8111156111db576111da610ffb565b5b6111e786828701611118565b935050602084013567ffffffffffffffff81111561120857611207610ffb565b5b61121486828701611118565b92505060406112258682870161118f565b9150509250925092565b600067ffffffffffffffff82111561124a5761124961101b565b5b602082029050602081019050919050565b600080fd5b6000819050919050565b61127381611260565b811461127e57600080fd5b50565b6000813590506112908161126a565b92915050565b60006112a96112a48461122f565b61107b565b905080838252602082019050602084028301858111156112cc576112cb61125b565b5b835b818110156112f557806112e18882611281565b8452602084019350506020810190506112ce565b5050509392505050565b600082601f83011261131457611313611000565b5b8135611324848260208601611296565b91505092915050565b6000806040838503121561134457611343610ff6565b5b60006113528582860161118f565b925050602083013567ffffffffffffffff81111561137357611372610ffb565b5b61137f858286016112ff565b9150509250929050565b600081519050919050565b600082825260208201905092915050565b6000819050602082019050919050565b600081519050919050565b600082825260208201905092915050565b60005b838110156113ef5780820151818401526020810190506113d4565b60008484015250505050565b6000611406826113b5565b61141081856113c0565b93506114208185602086016113d1565b6114298161100a565b840191505092915050565b600061144083836113fb565b905092915050565b6000602082019050919050565b600061146082611389565b61146a8185611394565b93508360208202850161147c856113a5565b8060005b858110156114b857848403895281516114998582611434565b94506114a483611448565b925060208a01995050600181019050611480565b50829750879550505050505092915050565b600060408201905081810360008301526114e48185611455565b905081810360208301526114f88184611455565b90509392505050565b61150a81611166565b82525050565b60006020820190506115256000830184611501565b92915050565b60008115159050919050565b6115408161152b565b82525050565b600060208201905061155b6000830184611537565b92915050565b60006020828403121561157757611576610ff6565b5b600082013567ffffffffffffffff81111561159557611594610ffb565b5b6115a184828501611118565b91505092915050565b60006040820190506115bf6000830185611537565b6115cc6020830184611501565b9392505050565b6000602082840312156115e9576115e8610ff6565b5b60006115f78482850161118f565b91505092915050565b60006020828403121561161657611615610ff6565b5b600061162484828501611281565b91505092915050565b600082825260208201905092915050565b6000611649826113b5565b611653818561162d565b93506116638185602086016113d1565b61166c8161100a565b840191505092915050565b61168081611260565b82525050565b600060808201905081810360008301526116a0818761163e565b905081810360208301526116b4818661163e565b90506116c36040830185611501565b6116d06060830184611677565b95945050505050565b60006040820190506116ee6000830185611677565b6116fb6020830184611537565b9392505050565b600081519050919050565b600082825260208201905092915050565b6000819050602082019050919050565b61173781611260565b82525050565b6000611749838361172e565b60208301905092915050565b6000602082019050919050565b600061176d82611702565b611777818561170d565b93506117828361171e565b8060005b838110156117b357815161179a888261173d565b97506117a583611755565b925050600181019050611786565b5085935050505092915050565b600060208201905081810360008301526117da8184611762565b905092915050565b600081905092915050565b60006117f8826113b5565b61180281856117e2565b93506118128185602086016113d1565b80840191505092915050565b600061182a82846117ed565b915081905092915050565b7f4e487b7100000000000000000000000000000000000000000000000000000000600052602260045260246000fd5b6000600282049050600182168061187c57607f821691505b60208210810361188f5761188e611835565b5b50919050565b60008190508160005260206000209050919050565b600081546118b781611864565b6118c181866117e2565b945060018216600081146118dc57600181146118f157611924565b60ff1983168652811515820286019350611924565b6118fa85611895565b60005b8381101561191c578154818901526001820191506020810190506118fd565b838801955050505b50505092915050565b600061193982846118aa565b915081905092915050565b7f4e487b7100000000000000000000000000000000000000000000000000000000600052601160045260246000fd5b600061197e82611260565b91507fffffffffffffffffffffffffffffffffffffffffffffffffffffffffffffffff82036119b0576119af611944565b5b600182019050919050565b7f46696c6520616c72656164792065786973740000000000000000000000000000600082015250565b60006119f160128361162d565b91506119fc826119bb565b602082019050919050565b60006020820190508181036000830152611a20816119e4565b9050919050565b60006020601f8301049050919050565b600082821b905092915050565b600060088302611a747fffffffffffffffffffffffffffffffffffffffffffffffffffffffffffffffff82611a37565b611a7e8683611a37565b95508019841693508086168417925050509392505050565b6000819050919050565b6000611abb611ab6611ab184611260565b611a96565b611260565b9050919050565b6000819050919050565b611ad583611aa0565b611ae9611ae182611ac2565b848454611a44565b825550505050565b600090565b611afe611af1565b611b09818484611acc565b505050565b5b81811015611b2d57611b22600082611af6565b600181019050611b0f565b5050565b601f821115611b7257611b4381611895565b611b4c84611a27565b81016020851015611b5b578190505b611b6f611b6785611a27565b830182611b0e565b50505b505050565b600082821c905092915050565b6000611b9560001984600802611b77565b1980831691505092915050565b6000611bae8383611b84565b9150826002028217905092915050565b611bc7826113b5565b67ffffffffffffffff811115611be057611bdf61101b565b5b611bea8254611864565b611bf5828285611b31565b600060209050601f831160018114611c285760008415611c16578287015190505b611c208582611ba2565b865550611c88565b601f198416611c3686611895565b60005b82811015611c5e57848901518255600182019150602085019450602081019050611c39565b86831015611c7b5784890151611c77601f891682611b84565b8355505b6001600288020188555050505b505050505050565b6000611c9b82611260565b9150611ca683611260565b9250828203905081811115611cbe57611cbd611944565b5b92915050565b60006060820190508181036000830152611cde818661163e565b90508181036020830152611cf2818561163e565b9050611d016040830184611677565b949350505050565b7f4e487b7100000000000000000000000000000000000000000000000000000000600052603260045260246000fd5b6000611d4382611260565b9150611d4e83611260565b9250828201905080821115611d6657611d65611944565b5b92915050565b7f4e487b7100000000000000000000000000000000000000000000000000000000600052600160045260246000fdfea264697066735822122090ef7a7dfc7ff81b1a59cee010f9f67ea0a0a571f06c62998bf7d469409d37b664736f6c63430008130033",
  "immutableReferences": {},
  "source": "// SPDX-License-Identifier: MIT\npragma solidity ^0.8.0;\n\nimport \"./StoreFile.sol\";\n\ncontract GetFile is StoreFile {\n  function getFilesByOwner(address _owner) public view returns(uint[] memory) {\n    uint[] memory result = new uint[](ownerFileCount[_owner]);\n    uint counter = 0;\n    for(uint i = 0; i < files.length; i++) {\n      if(fileToOwner[i] == _owner) {\n        result[counter] = i;\n        counter++;\n      }\n    }\n    return result;\n  }\n\n  function getOwnerFileDetails(address _owner, uint[] memory fileIds) public view returns(string[] memory, string[] memory) {\n    string[] memory fileNames = new string[](ownerFileCount[_owner]);\n    string[] memory fileHashes = new string[](ownerFileCount[_owner]);\n    for(uint i = 0; i < fileIds.length; i++) {\n      uint fileId = fileIds[i];\n      fileNames[i] = fileToName[fileId];\n      fileHashes[i] = fileToHash[fileId];\n    }\n    return (fileNames, fileHashes);\n  }\n\n  function checkFileExistByHash(string memory _fileHash) public view returns(bool, address) {\n    bool isExist = false;\n    address owner;\n    for(uint i = 0; i < files.length; i++) {\n      if(keccak256(abi.encodePacked(fileToHash[i])) == keccak256(abi.encodePacked(_fileHash))){\n        isExist = true;\n        owner = fileToOwner[i];\n        return (isExist, owner);\n      }\n    }\n    return (isExist, owner);\n  }\n\n  function getFileIdByHash(string memory _fileHash) public view returns(uint, bool) {\n    bool isExist = false;\n    for(uint i = 0; i < files.length; i++) {\n      if(keccak256(abi.encodePacked(fileToHash[i])) == keccak256(abi.encodePacked(_fileHash))){\n        isExist = true;\n        return (i, isExist);\n      }\n    }\n    uint id = files.length;\n    return(id, isExist);\n  }\n}",
  "sourcePath": "D:\\Docs-Universe-master (1)\\Docs-Universe-master\\contracts\\GetFile.sol",
  "compiler": {
    "name": "solc",
    "version": "0.8.19+commit.7dd6d404.Emscripten.clang"
  },
  "schemaVersion": "3.4.13",
  "updatedAt": "2023-05-06T03:49:22.132Z",
  "devdoc": {
    "kind": "dev",
    "methods": {
      "isOwner()": {
        "returns": {
          "_0": "true if `msg.sender` is the owner of the contract."
        }
      },
      "owner()": {
        "returns": {
          "_0": "the address of the owner."
        }
      },
      "renounceOwnership()": {
        "details": "Allows the current owner to relinquish control of the contract."
      },
      "transferOwnership(address)": {
        "details": "Allows the current owner to transfer control of the contract to a newOwner.",
        "params": {
          "newOwner": "The address to transfer ownership to."
        }
      }
    },
    "version": 1
  },
  "userdoc": {
    "kind": "user",
    "methods": {
      "renounceOwnership()": {
        "notice": "Renouncing to ownership will leave the contract without an owner. It will not be possible to call the functions with the `onlyOwner` modifier anymore."
      }
    },
    "version": 1
  }
}