{
  "contractName": "StoreFile",
  "abi": [
    {
      "anonymous": false,
      "inputs": [
        {
          "indexed": true,
          "internalType": "address",
          "name": "previousOwner",
          "type": "address"
        },
        {
          "indexed": true,
          "internalType": "address",
          "name": "newOwner",
          "type": "address"
        }
      ],
      "name": "OwnershipTransferred",
      "type": "event"
    },
    {
      "anonymous": false,
      "inputs": [
        {
          "indexed": false,
          "internalType": "string",
          "name": "name",
          "type": "string"
        },
        {
          "indexed": false,
          "internalType": "string",
          "name": "fileHash",
          "type": "string"
        },
        {
          "indexed": true,
          "internalType": "address",
          "name": "owner",
          "type": "address"
        },
        {
          "indexed": false,
          "internalType": "uint256",
          "name": "storeDate",
          "type": "uint256"
        }
      ],
      "name": "StoreFileEvent",
      "type": "event"
    },
    {
      "inputs": [
        {
          "internalType": "uint256",
          "name": "",
          "type": "uint256"
        }
      ],
      "name": "files",
      "outputs": [
        {
          "internalType": "string",
          "name": "name",
          "type": "string"
        },
        {
          "internalType": "string",
          "name": "fileHash",
          "type": "string"
        },
        {
          "internalType": "address",
          "name": "owner",
          "type": "address"
        },
        {
          "internalType": "uint256",
          "name": "storeDate",
          "type": "uint256"
        }
      ],
      "stateMutability": "view",
      "type": "function"
    },
    {
      "inputs": [],
      "name": "isOwner",
      "outputs": [
        {
          "internalType": "bool",
          "name": "",
          "type": "bool"
        }
      ],
      "stateMutability": "view",
      "type": "function"
    },
    {
      "inputs": [],
      "name": "owner",
      "outputs": [
        {
          "internalType": "address",
          "name": "",
          "type": "address"
        }
      ],
      "stateMutability": "view",
      "type": "function"
    },
    {
      "inputs": [],
      "name": "renounceOwnership",
      "outputs": [],
      "stateMutability": "nonpayable",
      "type": "function"
    },
    {
      "inputs": [
        {
          "internalType": "address",
          "name": "newOwner",
          "type": "address"
        }
      ],
      "name": "transferOwnership",
      "outputs": [],
      "stateMutability": "nonpayable",
      "type": "function"
    },
    {
      "inputs": [
        {
          "internalType": "string",
          "name": "_name",
          "type": "string"
        },
        {
          "internalType": "string",
          "name": "_fileHash",
          "type": "string"
        },
        {
          "internalType": "address",
          "name": "_owner",
          "type": "address"
        }
      ],
      "name": "Store",
      "outputs": [],
      "stateMutability": "nonpayable",
      "type": "function"
    }
  ],
  "bytecode": "0x608060405234801561001057600080fd5b50336000806101000a81548173ffffffffffffffffffffffffffffffffffffffff021916908373ffffffffffffffffffffffffffffffffffffffff16021790555060008054906101000a900473ffffffffffffffffffffffffffffffffffffffff1673ffffffffffffffffffffffffffffffffffffffff16600073ffffffffffffffffffffffffffffffffffffffff167f8be0079c531659141344cd1fd0a4f28419497f9722a3daafe3b4186f6b6457e060405160405180910390a36112e9806100db6000396000f3fe608060405234801561001057600080fd5b50600436106100625760003560e01c80630fe9a1d614610067578063715018a6146100835780638da5cb5b1461008d5780638f32d59b146100ab578063f2fde38b146100c9578063f4c714b4146100e5575b600080fd5b610081600480360381019061007c9190610acd565b610118565b005b61008b610517565b005b6100956105e6565b6040516100a29190610b67565b60405180910390f35b6100b361060f565b6040516100c09190610b9d565b60405180910390f35b6100e360048036038101906100de9190610bb8565b610666565b005b6100ff60048036038101906100fa9190610c1b565b610683565b60405161010f9493929190610cd6565b60405180910390f35b60008080600090505b6001805490508110156101e1578460405160200161013f9190610d65565b60405160208183030381529060405280519060200120600360008381526020019081526020016000206040516020016101789190610e74565b60405160208183030381529060405280519060200120036101ce57600192506002600082815260200190815260200160002060009054906101000a900473ffffffffffffffffffffffffffffffffffffffff1691505b80806101d990610eba565b915050610121565b506001151582151503610229576040517f08c379a000000000000000000000000000000000000000000000000000000000815260040161022090610f4e565b60405180910390fd5b8273ffffffffffffffffffffffffffffffffffffffff168173ffffffffffffffffffffffffffffffffffffffff1603610297576040517f08c379a000000000000000000000000000000000000000000000000000000000815260040161028e90610f4e565b60405180910390fd5b6000429050600160405180608001604052808881526020018781526020018673ffffffffffffffffffffffffffffffffffffffff16815260200183815250908060018154018082558091505060019003906000526020600020906004020160009091909190915060008201518160000190816103139190611105565b5060208201518160010190816103299190611105565b5060408201518160020160006101000a81548173ffffffffffffffffffffffffffffffffffffffff021916908373ffffffffffffffffffffffffffffffffffffffff16021790555060608201518160030155505060006001808054905061039091906111d7565b9050336002600083815260200190815260200160002060006101000a81548173ffffffffffffffffffffffffffffffffffffffff021916908373ffffffffffffffffffffffffffffffffffffffff160217905550856003600083815260200190815260200160002090816104049190611105565b50866004600083815260200190815260200160002090816104259190611105565b506104796001600560003373ffffffffffffffffffffffffffffffffffffffff1673ffffffffffffffffffffffffffffffffffffffff168152602001908152602001600020546107f390919063ffffffff16565b600560003373ffffffffffffffffffffffffffffffffffffffff1673ffffffffffffffffffffffffffffffffffffffff168152602001908152602001600020819055508473ffffffffffffffffffffffffffffffffffffffff167f15fcfac5eaf6fc2bd63c0f413b1c9885f063e4e81c98237dc2b55b2067bfddc68888856040516105069392919061120b565b60405180910390a250505050505050565b61051f61060f565b61052857600080fd5b600073ffffffffffffffffffffffffffffffffffffffff1660008054906101000a900473ffffffffffffffffffffffffffffffffffffffff1673ffffffffffffffffffffffffffffffffffffffff167f8be0079c531659141344cd1fd0a4f28419497f9722a3daafe3b4186f6b6457e060405160405180910390a360008060006101000a81548173ffffffffffffffffffffffffffffffffffffffff021916908373ffffffffffffffffffffffffffffffffffffffff160217905550565b60008060009054906101000a900473ffffffffffffffffffffffffffffffffffffffff16905090565b60008060009054906101000a900473ffffffffffffffffffffffffffffffffffffffff1673ffffffffffffffffffffffffffffffffffffffff163373ffffffffffffffffffffffffffffffffffffffff1614905090565b61066e61060f565b61067757600080fd5b6106808161081f565b50565b6001818154811061069357600080fd5b90600052602060002090600402016000915090508060000180546106b690610dab565b80601f01602080910402602001604051908101604052809291908181526020018280546106e290610dab565b801561072f5780601f106107045761010080835404028352916020019161072f565b820191906000526020600020905b81548152906001019060200180831161071257829003601f168201915b50505050509080600101805461074490610dab565b80601f016020809104026020016040519081016040528092919081815260200182805461077090610dab565b80156107bd5780601f10610792576101008083540402835291602001916107bd565b820191906000526020600020905b8154815290600101906020018083116107a057829003601f168201915b5050505050908060020160009054906101000a900473ffffffffffffffffffffffffffffffffffffffff16908060030154905084565b60008082846108029190611250565b90508381101561081557610814611284565b5b8091505092915050565b600073ffffffffffffffffffffffffffffffffffffffff168173ffffffffffffffffffffffffffffffffffffffff160361085857600080fd5b8073ffffffffffffffffffffffffffffffffffffffff1660008054906101000a900473ffffffffffffffffffffffffffffffffffffffff1673ffffffffffffffffffffffffffffffffffffffff167f8be0079c531659141344cd1fd0a4f28419497f9722a3daafe3b4186f6b6457e060405160405180910390a3806000806101000a81548173ffffffffffffffffffffffffffffffffffffffff021916908373ffffffffffffffffffffffffffffffffffffffff16021790555050565b6000604051905090565b600080fd5b600080fd5b600080fd5b600080fd5b6000601f19601f8301169050919050565b7f4e487b7100000000000000000000000000000000000000000000000000000000600052604160045260246000fd5b61097c82610933565b810181811067ffffffffffffffff8211171561099b5761099a610944565b5b80604052505050565b60006109ae610915565b90506109ba8282610973565b919050565b600067ffffffffffffffff8211156109da576109d9610944565b5b6109e382610933565b9050602081019050919050565b82818337600083830152505050565b6000610a12610a0d846109bf565b6109a4565b905082815260208101848484011115610a2e57610a2d61092e565b5b610a398482856109f0565b509392505050565b600082601f830112610a5657610a55610929565b5b8135610a668482602086016109ff565b91505092915050565b600073ffffffffffffffffffffffffffffffffffffffff82169050919050565b6000610a9a82610a6f565b9050919050565b610aaa81610a8f565b8114610ab557600080fd5b50565b600081359050610ac781610aa1565b92915050565b600080600060608486031215610ae657610ae561091f565b5b600084013567ffffffffffffffff811115610b0457610b03610924565b5b610b1086828701610a41565b935050602084013567ffffffffffffffff811115610b3157610b30610924565b5b610b3d86828701610a41565b9250506040610b4e86828701610ab8565b9150509250925092565b610b6181610a8f565b82525050565b6000602082019050610b7c6000830184610b58565b92915050565b60008115159050919050565b610b9781610b82565b82525050565b6000602082019050610bb26000830184610b8e565b92915050565b600060208284031215610bce57610bcd61091f565b5b6000610bdc84828501610ab8565b91505092915050565b6000819050919050565b610bf881610be5565b8114610c0357600080fd5b50565b600081359050610c1581610bef565b92915050565b600060208284031215610c3157610c3061091f565b5b6000610c3f84828501610c06565b91505092915050565b600081519050919050565b600082825260208201905092915050565b60005b83811015610c82578082015181840152602081019050610c67565b60008484015250505050565b6000610c9982610c48565b610ca38185610c53565b9350610cb3818560208601610c64565b610cbc81610933565b840191505092915050565b610cd081610be5565b82525050565b60006080820190508181036000830152610cf08187610c8e565b90508181036020830152610d048186610c8e565b9050610d136040830185610b58565b610d206060830184610cc7565b95945050505050565b600081905092915050565b6000610d3f82610c48565b610d498185610d29565b9350610d59818560208601610c64565b80840191505092915050565b6000610d718284610d34565b915081905092915050565b7f4e487b7100000000000000000000000000000000000000000000000000000000600052602260045260246000fd5b60006002820490506001821680610dc357607f821691505b602082108103610dd657610dd5610d7c565b5b50919050565b60008190508160005260206000209050919050565b60008154610dfe81610dab565b610e088186610d29565b94506001821660008114610e235760018114610e3857610e6b565b60ff1983168652811515820286019350610e6b565b610e4185610ddc565b60005b83811015610e6357815481890152600182019150602081019050610e44565b838801955050505b50505092915050565b6000610e808284610df1565b915081905092915050565b7f4e487b7100000000000000000000000000000000000000000000000000000000600052601160045260246000fd5b6000610ec582610be5565b91507fffffffffffffffffffffffffffffffffffffffffffffffffffffffffffffffff8203610ef757610ef6610e8b565b5b600182019050919050565b7f46696c6520616c72656164792065786973740000000000000000000000000000600082015250565b6000610f38601283610c53565b9150610f4382610f02565b602082019050919050565b60006020820190508181036000830152610f6781610f2b565b9050919050565b60006020601f8301049050919050565b600082821b905092915050565b600060088302610fbb7fffffffffffffffffffffffffffffffffffffffffffffffffffffffffffffffff82610f7e565b610fc58683610f7e565b95508019841693508086168417925050509392505050565b6000819050919050565b6000611002610ffd610ff884610be5565b610fdd565b610be5565b9050919050565b6000819050919050565b61101c83610fe7565b61103061102882611009565b848454610f8b565b825550505050565b600090565b611045611038565b611050818484611013565b505050565b5b818110156110745761106960008261103d565b600181019050611056565b5050565b601f8211156110b95761108a81610ddc565b61109384610f6e565b810160208510156110a2578190505b6110b66110ae85610f6e565b830182611055565b50505b505050565b600082821c905092915050565b60006110dc600019846008026110be565b1980831691505092915050565b60006110f583836110cb565b9150826002028217905092915050565b61110e82610c48565b67ffffffffffffffff81111561112757611126610944565b5b6111318254610dab565b61113c828285611078565b600060209050601f83116001811461116f576000841561115d578287015190505b61116785826110e9565b8655506111cf565b601f19841661117d86610ddc565b60005b828110156111a557848901518255600182019150602085019450602081019050611180565b868310156111c257848901516111be601f8916826110cb565b8355505b6001600288020188555050505b505050505050565b60006111e282610be5565b91506111ed83610be5565b925082820390508181111561120557611204610e8b565b5b92915050565b600060608201905081810360008301526112258186610c8e565b905081810360208301526112398185610c8e565b90506112486040830184610cc7565b949350505050565b600061125b82610be5565b915061126683610be5565b925082820190508082111561127e5761127d610e8b565b5b92915050565b7f4e487b7100000000000000000000000000000000000000000000000000000000600052600160045260246000fdfea264697066735822122073d4c00a323958a4193f2bff6f3224908d626d0c8abfa9a9e6da3b4dd932db2a64736f6c63430008130033",
  "immutableReferences": {},
  "source": "// SPDX-License-Identifier: MIT\npragma solidity ^0.8.0;\n\nimport \"./Storage.sol\";\nimport \"./safemath.sol\";\n\ncontract StoreFile is Storage {\n  using SafeMath for uint256;\n\n  event StoreFileEvent(\n    string name,\n    string fileHash,\n    address indexed owner,\n    uint storeDate\n  );\n\n  function Store(string memory _name, string memory _fileHash, address _owner) public {\n    bool isExist = false;\n    address owner;\n\n    // Check if there is the same file already recorded on the blockchain\n    for(uint i = 0; i < files.length; i++) {\n      if(keccak256(abi.encodePacked(fileToHash[i])) == keccak256(abi.encodePacked(_fileHash))){\n        isExist = true;\n        owner = fileToOwner[i];\n      }\n    }\n\n    // If same file exist, then:\n    if(isExist == true) {\n      revert('File already exist');\n    } else {\n      // If file is unique then check the owner\n      // Owner can't store same file multiple times\n      if(owner == _owner) {\n        revert('File already exist');\n      } else {\n        // Finally if everything si clear then proceed\n        uint _storeDate = block.timestamp;\n        files.push(File(_name, _fileHash, _owner, _storeDate));\n        uint id = files.length - 1;\n        fileToOwner[id] = msg.sender;\n        fileToHash[id] = _fileHash;\n        fileToName[id] = _name;\n        ownerFileCount[msg.sender] = ownerFileCount[msg.sender].add(1);\n        emit StoreFileEvent(_name, _fileHash, _owner, _storeDate);\n      }\n    }\n  }\n}",
  "sourcePath": "D:\\Docs-Universe-master (1)\\Docs-Universe-master\\contracts\\StoreFile.sol",
  "compiler": {
    "name": "solc",
    "version": "0.8.19+commit.7dd6d404.Emscripten.clang"
  },
  "schemaVersion": "3.4.13",
  "updatedAt": "2023-05-06T03:49:22.176Z",
  "devdoc": {
    "kind": "dev",
    "methods": {
      "isOwner()": {
        "returns": {
          "_0": "true if `msg.sender` is the owner of the contract."
        }
      },
      "owner()": {
        "returns": {
          "_0": "the address of the owner."
        }
      },
      "renounceOwnership()": {
        "details": "Allows the current owner to relinquish control of the contract."
      },
      "transferOwnership(address)": {
        "details": "Allows the current owner to transfer control of the contract to a newOwner.",
        "params": {
          "newOwner": "The address to transfer ownership to."
        }
      }
    },
    "version": 1
  },
  "userdoc": {
    "kind": "user",
    "methods": {
      "renounceOwnership()": {
        "notice": "Renouncing to ownership will leave the contract without an owner. It will not be possible to call the functions with the `onlyOwner` modifier anymore."
      }
    },
    "version": 1
  }
}