{
  "contractName": "Storage",
  "abi": [
    {
      "anonymous": false,
      "inputs": [
        {
          "indexed": true,
          "internalType": "address",
          "name": "previousOwner",
          "type": "address"
        },
        {
          "indexed": true,
          "internalType": "address",
          "name": "newOwner",
          "type": "address"
        }
      ],
      "name": "OwnershipTransferred",
      "type": "event"
    },
    {
      "inputs": [
        {
          "internalType": "uint256",
          "name": "",
          "type": "uint256"
        }
      ],
      "name": "files",
      "outputs": [
        {
          "internalType": "string",
          "name": "name",
          "type": "string"
        },
        {
          "internalType": "string",
          "name": "fileHash",
          "type": "string"
        },
        {
          "internalType": "address",
          "name": "owner",
          "type": "address"
        },
        {
          "internalType": "uint256",
          "name": "storeDate",
          "type": "uint256"
        }
      ],
      "stateMutability": "view",
      "type": "function"
    },
    {
      "inputs": [],
      "name": "isOwner",
      "outputs": [
        {
          "internalType": "bool",
          "name": "",
          "type": "bool"
        }
      ],
      "stateMutability": "view",
      "type": "function"
    },
    {
      "inputs": [],
      "name": "owner",
      "outputs": [
        {
          "internalType": "address",
          "name": "",
          "type": "address"
        }
      ],
      "stateMutability": "view",
      "type": "function"
    },
    {
      "inputs": [],
      "name": "renounceOwnership",
      "outputs": [],
      "stateMutability": "nonpayable",
      "type": "function"
    },
    {
      "inputs": [
        {
          "internalType": "address",
          "name": "newOwner",
          "type": "address"
        }
      ],
      "name": "transferOwnership",
      "outputs": [],
      "stateMutability": "nonpayable",
      "type": "function"
    }
  ],
  "bytecode": "0x608060405234801561001057600080fd5b50336000806101000a81548173ffffffffffffffffffffffffffffffffffffffff021916908373ffffffffffffffffffffffffffffffffffffffff16021790555060008054906101000a900473ffffffffffffffffffffffffffffffffffffffff1673ffffffffffffffffffffffffffffffffffffffff16600073ffffffffffffffffffffffffffffffffffffffff167f8be0079c531659141344cd1fd0a4f28419497f9722a3daafe3b4186f6b6457e060405160405180910390a361079e806100db6000396000f3fe608060405234801561001057600080fd5b50600436106100575760003560e01c8063715018a61461005c5780638da5cb5b146100665780638f32d59b14610084578063f2fde38b146100a2578063f4c714b4146100be575b600080fd5b6100646100f1565b005b61006e6101c0565b60405161007b9190610504565b60405180910390f35b61008c6101e9565b604051610099919061053a565b60405180910390f35b6100bc60048036038101906100b79190610586565b610240565b005b6100d860048036038101906100d391906105e9565b61025d565b6040516100e894939291906106b5565b60405180910390f35b6100f96101e9565b61010257600080fd5b600073ffffffffffffffffffffffffffffffffffffffff1660008054906101000a900473ffffffffffffffffffffffffffffffffffffffff1673ffffffffffffffffffffffffffffffffffffffff167f8be0079c531659141344cd1fd0a4f28419497f9722a3daafe3b4186f6b6457e060405160405180910390a360008060006101000a81548173ffffffffffffffffffffffffffffffffffffffff021916908373ffffffffffffffffffffffffffffffffffffffff160217905550565b60008060009054906101000a900473ffffffffffffffffffffffffffffffffffffffff16905090565b60008060009054906101000a900473ffffffffffffffffffffffffffffffffffffffff1673ffffffffffffffffffffffffffffffffffffffff163373ffffffffffffffffffffffffffffffffffffffff1614905090565b6102486101e9565b61025157600080fd5b61025a816103cd565b50565b6001818154811061026d57600080fd5b906000526020600020906004020160009150905080600001805461029090610737565b80601f01602080910402602001604051908101604052809291908181526020018280546102bc90610737565b80156103095780601f106102de57610100808354040283529160200191610309565b820191906000526020600020905b8154815290600101906020018083116102ec57829003601f168201915b50505050509080600101805461031e90610737565b80601f016020809104026020016040519081016040528092919081815260200182805461034a90610737565b80156103975780601f1061036c57610100808354040283529160200191610397565b820191906000526020600020905b81548152906001019060200180831161037a57829003601f168201915b5050505050908060020160009054906101000a900473ffffffffffffffffffffffffffffffffffffffff16908060030154905084565b600073ffffffffffffffffffffffffffffffffffffffff168173ffffffffffffffffffffffffffffffffffffffff160361040657600080fd5b8073ffffffffffffffffffffffffffffffffffffffff1660008054906101000a900473ffffffffffffffffffffffffffffffffffffffff1673ffffffffffffffffffffffffffffffffffffffff167f8be0079c531659141344cd1fd0a4f28419497f9722a3daafe3b4186f6b6457e060405160405180910390a3806000806101000a81548173ffffffffffffffffffffffffffffffffffffffff021916908373ffffffffffffffffffffffffffffffffffffffff16021790555050565b600073ffffffffffffffffffffffffffffffffffffffff82169050919050565b60006104ee826104c3565b9050919050565b6104fe816104e3565b82525050565b600060208201905061051960008301846104f5565b92915050565b60008115159050919050565b6105348161051f565b82525050565b600060208201905061054f600083018461052b565b92915050565b600080fd5b610563816104e3565b811461056e57600080fd5b50565b6000813590506105808161055a565b92915050565b60006020828403121561059c5761059b610555565b5b60006105aa84828501610571565b91505092915050565b6000819050919050565b6105c6816105b3565b81146105d157600080fd5b50565b6000813590506105e3816105bd565b92915050565b6000602082840312156105ff576105fe610555565b5b600061060d848285016105d4565b91505092915050565b600081519050919050565b600082825260208201905092915050565b60005b83811015610650578082015181840152602081019050610635565b60008484015250505050565b6000601f19601f8301169050919050565b600061067882610616565b6106828185610621565b9350610692818560208601610632565b61069b8161065c565b840191505092915050565b6106af816105b3565b82525050565b600060808201905081810360008301526106cf818761066d565b905081810360208301526106e3818661066d565b90506106f260408301856104f5565b6106ff60608301846106a6565b95945050505050565b7f4e487b7100000000000000000000000000000000000000000000000000000000600052602260045260246000fd5b6000600282049050600182168061074f57607f821691505b60208210810361076257610761610708565b5b5091905056fea2646970667358221220c623aa2196c6f92e453d4828610a36497882ed947877bb901c54acc9ba16cb3264736f6c63430008130033",
  "immutableReferences": {},
  "source": "// SPDX-License-Identifier: MIT\npragma solidity ^0.8.0;\n\n/** \n * @title Planet of Docs\n * @author Bagas Fadillah Islamay\n * @notice Manage files with IPFS data storing\n * @dev This contract might be buggy\n * @custom:experimental This is an experimental contract, Tugas Akhir!\n */\n\nimport \"./ownable.sol\";\nimport \"./safemath.sol\";\n\ncontract Storage is Ownable{\n  /**\n   * @dev Base contract\n   */\n  \n  struct File {\n    string name;\n    string fileHash;\n    address owner;\n    uint256 storeDate;\n  }\n\n  // Array of files struct\n  File[] public files;\n\n  // Map file to owner\n  mapping (uint => address) internal fileToOwner;\n  // Map file to hash\n  mapping (uint => string) internal fileToHash;\n  // Map file to name\n  mapping (uint => string) internal fileToName;\n  // The number of files owned by the owner\n  mapping (address => uint) internal ownerFileCount;\n \n\n  modifier ownerOfFile(uint _fileId) {\n    /**\n     * @dev Modifier to check that only owner that can alter the file's info\n     * Act as an anti-IDOR mechanism\n     * Reference: Refactoring Common Logic from CZ-L4-C6\n     */\n    require(msg.sender == fileToOwner[_fileId]);\n    _;\n  }\n}",
  "sourcePath": "D:\\Docs-Universe-master (1)\\Docs-Universe-master\\contracts\\Storage.sol",
  "compiler": {
    "name": "solc",
    "version": "0.8.19+commit.7dd6d404.Emscripten.clang"
  },
  "schemaVersion": "3.4.13",
  "updatedAt": "2023-05-06T03:49:22.169Z",
  "devdoc": {
    "kind": "dev",
    "methods": {
      "isOwner()": {
        "returns": {
          "_0": "true if `msg.sender` is the owner of the contract."
        }
      },
      "owner()": {
        "returns": {
          "_0": "the address of the owner."
        }
      },
      "renounceOwnership()": {
        "details": "Allows the current owner to relinquish control of the contract."
      },
      "transferOwnership(address)": {
        "details": "Allows the current owner to transfer control of the contract to a newOwner.",
        "params": {
          "newOwner": "The address to transfer ownership to."
        }
      }
    },
    "version": 1
  },
  "userdoc": {
    "kind": "user",
    "methods": {
      "renounceOwnership()": {
        "notice": "Renouncing to ownership will leave the contract without an owner. It will not be possible to call the functions with the `onlyOwner` modifier anymore."
      }
    },
    "version": 1
  }
}